{
  "_format": "hh-sol-artifact-1",
  "contractName": "SupplyChain",
  "sourceName": "contracts/SupplyChain.sol",
  "abi": [
    {
      "inputs": [],
      "stateMutability": "nonpayable",
      "type": "constructor"
    },
    {
      "anonymous": false,
      "inputs": [
        {
          "indexed": true,
          "internalType": "uint256",
          "name": "id",
          "type": "uint256"
        },
        {
          "indexed": true,
          "internalType": "address",
          "name": "from",
          "type": "address"
        },
        {
          "indexed": true,
          "internalType": "address",
          "name": "to",
          "type": "address"
        }
      ],
      "name": "OwnershipTransferred",
      "type": "event"
    },
    {
      "anonymous": false,
      "inputs": [
        {
          "indexed": true,
          "internalType": "uint256",
          "name": "id",
          "type": "uint256"
        },
        {
          "indexed": true,
          "internalType": "address",
          "name": "owner",
          "type": "address"
        },
        {
          "indexed": false,
          "internalType": "string",
          "name": "batchId",
          "type": "string"
        }
      ],
      "name": "ProductCreated",
      "type": "event"
    },
    {
      "anonymous": false,
      "inputs": [
        {
          "indexed": true,
          "internalType": "uint256",
          "name": "id",
          "type": "uint256"
        },
        {
          "indexed": false,
          "internalType": "enum SupplyChain.Status",
          "name": "status",
          "type": "uint8"
        }
      ],
      "name": "StatusUpdated",
      "type": "event"
    },
    {
      "inputs": [],
      "name": "admin",
      "outputs": [
        {
          "internalType": "address",
          "name": "",
          "type": "address"
        }
      ],
      "stateMutability": "view",
      "type": "function"
    },
    {
      "inputs": [
        {
          "internalType": "address",
          "name": "",
          "type": "address"
        }
      ],
      "name": "certifiers",
      "outputs": [
        {
          "internalType": "bool",
          "name": "",
          "type": "bool"
        }
      ],
      "stateMutability": "view",
      "type": "function"
    },
    {
      "inputs": [
        {
          "internalType": "uint256",
          "name": "id",
          "type": "uint256"
        },
        {
          "internalType": "address",
          "name": "owner",
          "type": "address"
        }
      ],
      "name": "certifyProduct",
      "outputs": [
        {
          "internalType": "bool",
          "name": "",
          "type": "bool"
        }
      ],
      "stateMutability": "view",
      "type": "function"
    },
    {
      "inputs": [
        {
          "internalType": "address",
          "name": "",
          "type": "address"
        }
      ],
      "name": "distributors",
      "outputs": [
        {
          "internalType": "bool",
          "name": "",
          "type": "bool"
        }
      ],
      "stateMutability": "view",
      "type": "function"
    },
    {
      "inputs": [
        {
          "internalType": "uint256",
          "name": "id",
          "type": "uint256"
        }
      ],
      "name": "getProduct",
      "outputs": [
        {
          "components": [
            {
              "internalType": "uint256",
              "name": "id",
              "type": "uint256"
            },
            {
              "internalType": "address",
              "name": "owner",
              "type": "address"
            },
            {
              "internalType": "string",
              "name": "batchId",
              "type": "string"
            },
            {
              "internalType": "string",
              "name": "metadataUri",
              "type": "string"
            },
            {
              "internalType": "enum SupplyChain.Status",
              "name": "status",
              "type": "uint8"
            },
            {
              "internalType": "uint256",
              "name": "createdAt",
              "type": "uint256"
            }
          ],
          "internalType": "struct SupplyChain.Product",
          "name": "",
          "type": "tuple"
        }
      ],
      "stateMutability": "view",
      "type": "function"
    },
    {
      "inputs": [
        {
          "internalType": "address",
          "name": "",
          "type": "address"
        }
      ],
      "name": "manufacturer",
      "outputs": [
        {
          "internalType": "bool",
          "name": "",
          "type": "bool"
        }
      ],
      "stateMutability": "view",
      "type": "function"
    },
    {
      "inputs": [
        {
          "internalType": "uint256",
          "name": "",
          "type": "uint256"
        }
      ],
      "name": "products",
      "outputs": [
        {
          "internalType": "uint256",
          "name": "id",
          "type": "uint256"
        },
        {
          "internalType": "address",
          "name": "owner",
          "type": "address"
        },
        {
          "internalType": "string",
          "name": "batchId",
          "type": "string"
        },
        {
          "internalType": "string",
          "name": "metadataUri",
          "type": "string"
        },
        {
          "internalType": "enum SupplyChain.Status",
          "name": "status",
          "type": "uint8"
        },
        {
          "internalType": "uint256",
          "name": "createdAt",
          "type": "uint256"
        }
      ],
      "stateMutability": "view",
      "type": "function"
    },
    {
      "inputs": [
        {
          "internalType": "string",
          "name": "batchId",
          "type": "string"
        },
        {
          "internalType": "string",
          "name": "metadataUri",
          "type": "string"
        }
      ],
      "name": "registerProduct",
      "outputs": [
        {
          "internalType": "uint256",
          "name": "",
          "type": "uint256"
        }
      ],
      "stateMutability": "nonpayable",
      "type": "function"
    },
    {
      "inputs": [
        {
          "internalType": "address",
          "name": "",
          "type": "address"
        }
      ],
      "name": "retailers",
      "outputs": [
        {
          "internalType": "bool",
          "name": "",
          "type": "bool"
        }
      ],
      "stateMutability": "view",
      "type": "function"
    },
    {
      "inputs": [
        {
          "internalType": "address",
          "name": "_addr",
          "type": "address"
        },
        {
          "internalType": "bool",
          "name": "_ok",
          "type": "bool"
        }
      ],
      "name": "setCertifier",
      "outputs": [],
      "stateMutability": "nonpayable",
      "type": "function"
    },
    {
      "inputs": [
        {
          "internalType": "address",
          "name": "_addr",
          "type": "address"
        },
        {
          "internalType": "bool",
          "name": "_ok",
          "type": "bool"
        }
      ],
      "name": "setDistributor",
      "outputs": [],
      "stateMutability": "nonpayable",
      "type": "function"
    },
    {
      "inputs": [
        {
          "internalType": "address",
          "name": "_addr",
          "type": "address"
        },
        {
          "internalType": "bool",
          "name": "_ok",
          "type": "bool"
        }
      ],
      "name": "setManufacturer",
      "outputs": [],
      "stateMutability": "nonpayable",
      "type": "function"
    },
    {
      "inputs": [
        {
          "internalType": "address",
          "name": "_addr",
          "type": "address"
        },
        {
          "internalType": "bool",
          "name": "_ok",
          "type": "bool"
        }
      ],
      "name": "setRetailer",
      "outputs": [],
      "stateMutability": "nonpayable",
      "type": "function"
    },
    {
      "inputs": [],
      "name": "test",
      "outputs": [
        {
          "internalType": "uint256",
          "name": "",
          "type": "uint256"
        }
      ],
      "stateMutability": "view",
      "type": "function"
    },
    {
      "inputs": [
        {
          "internalType": "uint256",
          "name": "id",
          "type": "uint256"
        },
        {
          "internalType": "address",
          "name": "to",
          "type": "address"
        }
      ],
      "name": "transferOwnership",
      "outputs": [],
      "stateMutability": "nonpayable",
      "type": "function"
    },
    {
      "inputs": [
        {
          "internalType": "uint256",
          "name": "id",
          "type": "uint256"
        },
        {
          "internalType": "enum SupplyChain.Status",
          "name": "newStatus",
          "type": "uint8"
        }
      ],
      "name": "updateStatus",
      "outputs": [],
      "stateMutability": "nonpayable",
      "type": "function"
    }
  ],
  "bytecode": "0x608060405260016000556001600755348015601957600080fd5b5033600660006101000a81548173ffffffffffffffffffffffffffffffffffffffff021916908373ffffffffffffffffffffffffffffffffffffffff1602179055506120838061006a6000396000f3fe608060405234801561001057600080fd5b50600436106101005760003560e01c8063958e6cc611610097578063cc64278411610066578063cc642784146102e6578063d59ba0df14610316578063f851a44014610332578063f8a8fd6d1461035057610100565b8063958e6cc61461023a5780639a268f35146102565780639ce31b9c14610286578063b9db15b4146102b657610100565b80635d42b2b9116100d35780635d42b2b9146101895780637acc0b20146101b957806389588018146101ee5780638fbd0dcf1461020a57610100565b806310769cd51461010557806329507f73146101355780632dea85e5146101515780633a1b3d311461016d575b600080fd5b61011f600480360381019061011a9190611416565b61036e565b60405161012c919061145e565b60405180910390f35b61014f600480360381019061014a91906114af565b61038e565b005b61016b6004803603810190610166919061151b565b610521565b005b61018760048036038101906101829190611580565b61060c565b005b6101a3600480360381019061019e9190611416565b6107bd565b6040516101b0919061145e565b60405180910390f35b6101d360048036038101906101ce91906115c0565b6107dd565b6040516101e596959493929190611712565b60405180910390f35b6102086004803603810190610203919061151b565b610956565b005b610224600480360381019061021f91906117e6565b610b46565b6040516102319190611867565b60405180910390f35b610254600480360381019061024f919061151b565b610df6565b005b610270600480360381019061026b9190611416565b610ee1565b60405161027d919061145e565b60405180910390f35b6102a0600480360381019061029b91906114af565b610f01565b6040516102ad919061145e565b60405180910390f35b6102d060048036038101906102cb91906115c0565b611023565b6040516102dd9190611989565b60405180910390f35b61030060048036038101906102fb9190611416565b611219565b60405161030d919061145e565b60405180910390f35b610330600480360381019061032b919061151b565b611239565b005b61033a611324565b60405161034791906119ab565b60405180910390f35b61035861134a565b6040516103659190611867565b60405180910390f35b60026020528060005260406000206000915054906101000a900460ff1681565b600060016000848152602001908152602001600020905060008160000154036103ec576040517f08c379a00000000000000000000000000000000000000000000000000000000081526004016103e390611a12565b60405180910390fd5b3373ffffffffffffffffffffffffffffffffffffffff168160010160009054906101000a900473ffffffffffffffffffffffffffffffffffffffff1673ffffffffffffffffffffffffffffffffffffffff161461047e576040517f08c379a000000000000000000000000000000000000000000000000000000000815260040161047590611a7e565b60405180910390fd5b818160010160006101000a81548173ffffffffffffffffffffffffffffffffffffffff021916908373ffffffffffffffffffffffffffffffffffffffff1602179055508173ffffffffffffffffffffffffffffffffffffffff163373ffffffffffffffffffffffffffffffffffffffff16847f16b85f49bf01212961345d3016c9a531894accf62eb7680f2045d79185cc0ec060405160405180910390a4505050565b600660009054906101000a900473ffffffffffffffffffffffffffffffffffffffff1673ffffffffffffffffffffffffffffffffffffffff163373ffffffffffffffffffffffffffffffffffffffff16146105b1576040517f08c379a00000000000000000000000000000000000000000000000000000000081526004016105a890611aea565b60405180910390fd5b80600260008473ffffffffffffffffffffffffffffffffffffffff1673ffffffffffffffffffffffffffffffffffffffff16815260200190815260200160002060006101000a81548160ff0219169083151502179055505050565b6000600160008481526020019081526020016000209050600081600001540361066a576040517f08c379a000000000000000000000000000000000000000000000000000000000815260040161066190611a12565b60405180910390fd5b8060010160009054906101000a900473ffffffffffffffffffffffffffffffffffffffff1673ffffffffffffffffffffffffffffffffffffffff163373ffffffffffffffffffffffffffffffffffffffff1614806107155750600660009054906101000a900473ffffffffffffffffffffffffffffffffffffffff1673ffffffffffffffffffffffffffffffffffffffff163373ffffffffffffffffffffffffffffffffffffffff16145b610754576040517f08c379a000000000000000000000000000000000000000000000000000000000815260040161074b90611b56565b60405180910390fd5b818160040160006101000a81548160ff0219169083600481111561077b5761077a61169b565b5b0217905550827f2da7b23ca63c1eb969eee5fae4acb98186abecf5358b0354a82a5183ebca6b2a836040516107b09190611b76565b60405180910390a2505050565b60056020528060005260406000206000915054906101000a900460ff1681565b60016020528060005260406000206000915090508060000154908060010160009054906101000a900473ffffffffffffffffffffffffffffffffffffffff169080600201805461082c90611bc0565b80601f016020809104026020016040519081016040528092919081815260200182805461085890611bc0565b80156108a55780601f1061087a576101008083540402835291602001916108a5565b820191906000526020600020905b81548152906001019060200180831161088857829003601f168201915b5050505050908060030180546108ba90611bc0565b80601f01602080910402602001604051908101604052809291908181526020018280546108e690611bc0565b80156109335780601f1061090857610100808354040283529160200191610933565b820191906000526020600020905b81548152906001019060200180831161091657829003601f168201915b5050505050908060040160009054906101000a900460ff16908060050154905086565b600660009054906101000a900473ffffffffffffffffffffffffffffffffffffffff1673ffffffffffffffffffffffffffffffffffffffff163373ffffffffffffffffffffffffffffffffffffffff16146109e6576040517f08c379a00000000000000000000000000000000000000000000000000000000081526004016109dd90611aea565b60405180910390fd5b80600560008473ffffffffffffffffffffffffffffffffffffffff1673ffffffffffffffffffffffffffffffffffffffff16815260200190815260200160002060006101000a81548160ff02191690831515021790555080600260008473ffffffffffffffffffffffffffffffffffffffff1673ffffffffffffffffffffffffffffffffffffffff16815260200190815260200160002060006101000a81548160ff02191690831515021790555080600360008473ffffffffffffffffffffffffffffffffffffffff1673ffffffffffffffffffffffffffffffffffffffff16815260200190815260200160002060006101000a81548160ff02191690831515021790555080600460008473ffffffffffffffffffffffffffffffffffffffff1673ffffffffffffffffffffffffffffffffffffffff16815260200190815260200160002060006101000a81548160ff0219169083151502179055505050565b6000600260003373ffffffffffffffffffffffffffffffffffffffff1673ffffffffffffffffffffffffffffffffffffffff16815260200190815260200160002060009054906101000a900460ff16610bd4576040517f08c379a0000000000000000000000000000000000000000000000000000000008152600401610bcb90611c3d565b60405180910390fd5b6000806000815480929190610be890611c8c565b9190505590506040518060c001604052808281526020013373ffffffffffffffffffffffffffffffffffffffff16815260200187878080601f016020809104026020016040519081016040528093929190818152602001838380828437600081840152601f19601f82011690508083019250505050505050815260200185858080601f016020809104026020016040519081016040528093929190818152602001838380828437600081840152601f19601f82011690508083019250505050505050815260200160016004811115610cc357610cc261169b565b5b815260200142815250600160008381526020019081526020016000206000820151816000015560208201518160010160006101000a81548173ffffffffffffffffffffffffffffffffffffffff021916908373ffffffffffffffffffffffffffffffffffffffff1602179055506040820151816002019081610d459190611eaf565b506060820151816003019081610d5b9190611eaf565b5060808201518160040160006101000a81548160ff02191690836004811115610d8757610d8661169b565b5b021790555060a082015181600501559050503373ffffffffffffffffffffffffffffffffffffffff16817f91bfc064380de20e1c90ea2ed78d0358b4ab45d446c0b93b0b07bc86f95897da8888604051610de2929190611fbd565b60405180910390a380915050949350505050565b600660009054906101000a900473ffffffffffffffffffffffffffffffffffffffff1673ffffffffffffffffffffffffffffffffffffffff163373ffffffffffffffffffffffffffffffffffffffff1614610e86576040517f08c379a0000000000000000000000000000000000000000000000000000000008152600401610e7d90611aea565b60405180910390fd5b80600460008473ffffffffffffffffffffffffffffffffffffffff1673ffffffffffffffffffffffffffffffffffffffff16815260200190815260200160002060006101000a81548160ff0219169083151502179055505050565b60046020528060005260406000206000915054906101000a900460ff1681565b6000600560003373ffffffffffffffffffffffffffffffffffffffff1673ffffffffffffffffffffffffffffffffffffffff16815260200190815260200160002060009054906101000a900460ff16610f8f576040517f08c379a0000000000000000000000000000000000000000000000000000000008152600401610f869061202d565b60405180910390fd5b600060016000858152602001908152602001600020905083816000015414801561100857508273ffffffffffffffffffffffffffffffffffffffff168160010160009054906101000a900473ffffffffffffffffffffffffffffffffffffffff1673ffffffffffffffffffffffffffffffffffffffff16145b1561101757600191505061101d565b60009150505b92915050565b61102b611350565b600160008381526020019081526020016000206040518060c0016040529081600082015481526020016001820160009054906101000a900473ffffffffffffffffffffffffffffffffffffffff1673ffffffffffffffffffffffffffffffffffffffff1673ffffffffffffffffffffffffffffffffffffffff1681526020016002820180546110b990611bc0565b80601f01602080910402602001604051908101604052809291908181526020018280546110e590611bc0565b80156111325780601f1061110757610100808354040283529160200191611132565b820191906000526020600020905b81548152906001019060200180831161111557829003601f168201915b5050505050815260200160038201805461114b90611bc0565b80601f016020809104026020016040519081016040528092919081815260200182805461117790611bc0565b80156111c45780601f10611199576101008083540402835291602001916111c4565b820191906000526020600020905b8154815290600101906020018083116111a757829003601f168201915b505050505081526020016004820160009054906101000a900460ff1660048111156111f2576111f161169b565b5b60048111156112045761120361169b565b5b81526020016005820154815250509050919050565b60036020528060005260406000206000915054906101000a900460ff1681565b600660009054906101000a900473ffffffffffffffffffffffffffffffffffffffff1673ffffffffffffffffffffffffffffffffffffffff163373ffffffffffffffffffffffffffffffffffffffff16146112c9576040517f08c379a00000000000000000000000000000000000000000000000000000000081526004016112c090611aea565b60405180910390fd5b80600360008473ffffffffffffffffffffffffffffffffffffffff1673ffffffffffffffffffffffffffffffffffffffff16815260200190815260200160002060006101000a81548160ff0219169083151502179055505050565b600660009054906101000a900473ffffffffffffffffffffffffffffffffffffffff1681565b60075481565b6040518060c0016040528060008152602001600073ffffffffffffffffffffffffffffffffffffffff1681526020016060815260200160608152602001600060048111156113a1576113a061169b565b5b8152602001600081525090565b600080fd5b600080fd5b600073ffffffffffffffffffffffffffffffffffffffff82169050919050565b60006113e3826113b8565b9050919050565b6113f3816113d8565b81146113fe57600080fd5b50565b600081359050611410816113ea565b92915050565b60006020828403121561142c5761142b6113ae565b5b600061143a84828501611401565b91505092915050565b60008115159050919050565b61145881611443565b82525050565b6000602082019050611473600083018461144f565b92915050565b6000819050919050565b61148c81611479565b811461149757600080fd5b50565b6000813590506114a981611483565b92915050565b600080604083850312156114c6576114c56113ae565b5b60006114d48582860161149a565b92505060206114e585828601611401565b9150509250929050565b6114f881611443565b811461150357600080fd5b50565b600081359050611515816114ef565b92915050565b60008060408385031215611532576115316113ae565b5b600061154085828601611401565b925050602061155185828601611506565b9150509250929050565b6005811061156857600080fd5b50565b60008135905061157a8161155b565b92915050565b60008060408385031215611597576115966113ae565b5b60006115a58582860161149a565b92505060206115b68582860161156b565b9150509250929050565b6000602082840312156115d6576115d56113ae565b5b60006115e48482850161149a565b91505092915050565b6115f681611479565b82525050565b611605816113d8565b82525050565b600081519050919050565b600082825260208201905092915050565b60005b8381101561164557808201518184015260208101905061162a565b60008484015250505050565b6000601f19601f8301169050919050565b600061166d8261160b565b6116778185611616565b9350611687818560208601611627565b61169081611651565b840191505092915050565b7f4e487b7100000000000000000000000000000000000000000000000000000000600052602160045260246000fd5b600581106116db576116da61169b565b5b50565b60008190506116ec826116ca565b919050565b60006116fc826116de565b9050919050565b61170c816116f1565b82525050565b600060c08201905061172760008301896115ed565b61173460208301886115fc565b81810360408301526117468187611662565b9050818103606083015261175a8186611662565b90506117696080830185611703565b61177660a08301846115ed565b979650505050505050565b600080fd5b600080fd5b600080fd5b60008083601f8401126117a6576117a5611781565b5b8235905067ffffffffffffffff8111156117c3576117c2611786565b5b6020830191508360018202830111156117df576117de61178b565b5b9250929050565b60008060008060408587031215611800576117ff6113ae565b5b600085013567ffffffffffffffff81111561181e5761181d6113b3565b5b61182a87828801611790565b9450945050602085013567ffffffffffffffff81111561184d5761184c6113b3565b5b61185987828801611790565b925092505092959194509250565b600060208201905061187c60008301846115ed565b92915050565b61188b81611479565b82525050565b61189a816113d8565b82525050565b600082825260208201905092915050565b60006118bc8261160b565b6118c681856118a0565b93506118d6818560208601611627565b6118df81611651565b840191505092915050565b6118f3816116f1565b82525050565b600060c0830160008301516119116000860182611882565b5060208301516119246020860182611891565b506040830151848203604086015261193c82826118b1565b9150506060830151848203606086015261195682826118b1565b915050608083015161196b60808601826118ea565b5060a083015161197e60a0860182611882565b508091505092915050565b600060208201905081810360008301526119a381846118f9565b905092915050565b60006020820190506119c060008301846115fc565b92915050565b7f50726f6475637420646f6573206e6f7420657869737400000000000000000000600082015250565b60006119fc601683611616565b9150611a07826119c6565b602082019050919050565b60006020820190508181036000830152611a2b816119ef565b9050919050565b7f4f6e6c79206f776e65722063616e207472616e73666572000000000000000000600082015250565b6000611a68601783611616565b9150611a7382611a32565b602082019050919050565b60006020820190508181036000830152611a9781611a5b565b9050919050565b7f4f6e6c792061646d696e00000000000000000000000000000000000000000000600082015250565b6000611ad4600a83611616565b9150611adf82611a9e565b602082019050919050565b60006020820190508181036000830152611b0381611ac7565b9050919050565b7f4e6f7420617574686f72697a6564000000000000000000000000000000000000600082015250565b6000611b40600e83611616565b9150611b4b82611b0a565b602082019050919050565b60006020820190508181036000830152611b6f81611b33565b9050919050565b6000602082019050611b8b6000830184611703565b92915050565b7f4e487b7100000000000000000000000000000000000000000000000000000000600052602260045260246000fd5b60006002820490506001821680611bd857607f821691505b602082108103611beb57611bea611b91565b5b50919050565b7f4f6e6c792070726f647563657200000000000000000000000000000000000000600082015250565b6000611c27600d83611616565b9150611c3282611bf1565b602082019050919050565b60006020820190508181036000830152611c5681611c1a565b9050919050565b7f4e487b7100000000000000000000000000000000000000000000000000000000600052601160045260246000fd5b6000611c9782611479565b91507fffffffffffffffffffffffffffffffffffffffffffffffffffffffffffffffff8203611cc957611cc8611c5d565b5b600182019050919050565b7f4e487b7100000000000000000000000000000000000000000000000000000000600052604160045260246000fd5b60008190508160005260206000209050919050565b60006020601f8301049050919050565b600082821b905092915050565b600060088302611d657fffffffffffffffffffffffffffffffffffffffffffffffffffffffffffffffff82611d28565b611d6f8683611d28565b95508019841693508086168417925050509392505050565b6000819050919050565b6000611dac611da7611da284611479565b611d87565b611479565b9050919050565b6000819050919050565b611dc683611d91565b611dda611dd282611db3565b848454611d35565b825550505050565b600090565b611def611de2565b611dfa818484611dbd565b505050565b5b81811015611e1e57611e13600082611de7565b600181019050611e00565b5050565b601f821115611e6357611e3481611d03565b611e3d84611d18565b81016020851015611e4c578190505b611e60611e5885611d18565b830182611dff565b50505b505050565b600082821c905092915050565b6000611e8660001984600802611e68565b1980831691505092915050565b6000611e9f8383611e75565b9150826002028217905092915050565b611eb88261160b565b67ffffffffffffffff811115611ed157611ed0611cd4565b5b611edb8254611bc0565b611ee6828285611e22565b600060209050601f831160018114611f195760008415611f07578287015190505b611f118582611e93565b865550611f79565b601f198416611f2786611d03565b60005b82811015611f4f57848901518255600182019150602085019450602081019050611f2a565b86831015611f6c5784890151611f68601f891682611e75565b8355505b6001600288020188555050505b505050505050565b82818337600083830152505050565b6000611f9c8385611616565b9350611fa9838584611f81565b611fb283611651565b840190509392505050565b60006020820190508181036000830152611fd8818486611f90565b90509392505050565b7f4f6e6c7920636572746966696572000000000000000000000000000000000000600082015250565b6000612017600e83611616565b915061202282611fe1565b602082019050919050565b600060208201905081810360008301526120468161200a565b905091905056fea2646970667358221220c07931fe82747eefd8b74e2951d03606e8cbfdd345dd1f1ca82a0f091d2d646b64736f6c634300081c0033",
  "linkReferences": {},
  "deployedLinkReferences": {}
}