{
  "_format": "hh-sol-artifact-1",
  "contractName": "SupplyChain",
  "sourceName": "contracts/SupplyChain.sol",
  "abi": [
    {
      "inputs": [],
      "stateMutability": "nonpayable",
      "type": "constructor"
    },
    {
      "anonymous": false,
      "inputs": [
        {
          "indexed": true,
          "internalType": "uint256",
          "name": "id",
          "type": "uint256"
        },
        {
          "indexed": true,
          "internalType": "address",
          "name": "from",
          "type": "address"
        },
        {
          "indexed": true,
          "internalType": "address",
          "name": "to",
          "type": "address"
        }
      ],
      "name": "OwnershipTransferred",
      "type": "event"
    },
    {
      "anonymous": false,
      "inputs": [
        {
          "indexed": true,
          "internalType": "uint256",
          "name": "id",
          "type": "uint256"
        },
        {
          "indexed": true,
          "internalType": "address",
          "name": "owner",
          "type": "address"
        },
        {
          "indexed": false,
          "internalType": "string",
          "name": "batchId",
          "type": "string"
        },
        {
          "indexed": false,
          "internalType": "string",
          "name": "metadata",
          "type": "string"
        }
      ],
      "name": "ProductCreated",
      "type": "event"
    },
    {
      "anonymous": false,
      "inputs": [
        {
          "indexed": true,
          "internalType": "uint256",
          "name": "id",
          "type": "uint256"
        },
        {
          "indexed": false,
          "internalType": "enum SupplyChain.Status",
          "name": "status",
          "type": "uint8"
        }
      ],
      "name": "StatusUpdated",
      "type": "event"
    },
    {
      "inputs": [],
      "name": "admin",
      "outputs": [
        {
          "internalType": "address",
          "name": "",
          "type": "address"
        }
      ],
      "stateMutability": "view",
      "type": "function"
    },
    {
      "inputs": [
        {
          "internalType": "address",
          "name": "",
          "type": "address"
        }
      ],
      "name": "certifiers",
      "outputs": [
        {
          "internalType": "bool",
          "name": "",
          "type": "bool"
        }
      ],
      "stateMutability": "view",
      "type": "function"
    },
    {
      "inputs": [
        {
          "internalType": "uint256",
          "name": "id",
          "type": "uint256"
        },
        {
          "internalType": "address",
          "name": "owner",
          "type": "address"
        }
      ],
      "name": "certifyProduct",
      "outputs": [
        {
          "internalType": "bool",
          "name": "",
          "type": "bool"
        }
      ],
      "stateMutability": "view",
      "type": "function"
    },
    {
      "inputs": [
        {
          "internalType": "address",
          "name": "",
          "type": "address"
        }
      ],
      "name": "distributors",
      "outputs": [
        {
          "internalType": "bool",
          "name": "",
          "type": "bool"
        }
      ],
      "stateMutability": "view",
      "type": "function"
    },
    {
      "inputs": [
        {
          "internalType": "uint256",
          "name": "id",
          "type": "uint256"
        }
      ],
      "name": "getProduct",
      "outputs": [
        {
          "components": [
            {
              "internalType": "uint256",
              "name": "id",
              "type": "uint256"
            },
            {
              "internalType": "address",
              "name": "owner",
              "type": "address"
            },
            {
              "internalType": "string",
              "name": "batchId",
              "type": "string"
            },
            {
              "internalType": "string",
              "name": "metadataUri",
              "type": "string"
            },
            {
              "internalType": "enum SupplyChain.Status",
              "name": "status",
              "type": "uint8"
            },
            {
              "internalType": "uint256",
              "name": "createdAt",
              "type": "uint256"
            }
          ],
          "internalType": "struct SupplyChain.Product",
          "name": "",
          "type": "tuple"
        }
      ],
      "stateMutability": "view",
      "type": "function"
    },
    {
      "inputs": [
        {
          "internalType": "address",
          "name": "",
          "type": "address"
        }
      ],
      "name": "manufacturer",
      "outputs": [
        {
          "internalType": "bool",
          "name": "",
          "type": "bool"
        }
      ],
      "stateMutability": "view",
      "type": "function"
    },
    {
      "inputs": [
        {
          "internalType": "uint256",
          "name": "",
          "type": "uint256"
        }
      ],
      "name": "products",
      "outputs": [
        {
          "internalType": "uint256",
          "name": "id",
          "type": "uint256"
        },
        {
          "internalType": "address",
          "name": "owner",
          "type": "address"
        },
        {
          "internalType": "string",
          "name": "batchId",
          "type": "string"
        },
        {
          "internalType": "string",
          "name": "metadataUri",
          "type": "string"
        },
        {
          "internalType": "enum SupplyChain.Status",
          "name": "status",
          "type": "uint8"
        },
        {
          "internalType": "uint256",
          "name": "createdAt",
          "type": "uint256"
        }
      ],
      "stateMutability": "view",
      "type": "function"
    },
    {
      "inputs": [
        {
          "internalType": "string",
          "name": "batchId",
          "type": "string"
        },
        {
          "internalType": "string",
          "name": "metadataUri",
          "type": "string"
        }
      ],
      "name": "registerProduct",
      "outputs": [
        {
          "internalType": "uint256",
          "name": "",
          "type": "uint256"
        }
      ],
      "stateMutability": "nonpayable",
      "type": "function"
    },
    {
      "inputs": [
        {
          "internalType": "address",
          "name": "",
          "type": "address"
        }
      ],
      "name": "retailers",
      "outputs": [
        {
          "internalType": "bool",
          "name": "",
          "type": "bool"
        }
      ],
      "stateMutability": "view",
      "type": "function"
    },
    {
      "inputs": [
        {
          "internalType": "address",
          "name": "_addr",
          "type": "address"
        },
        {
          "internalType": "bool",
          "name": "_ok",
          "type": "bool"
        }
      ],
      "name": "setCertifier",
      "outputs": [],
      "stateMutability": "nonpayable",
      "type": "function"
    },
    {
      "inputs": [
        {
          "internalType": "address",
          "name": "_addr",
          "type": "address"
        },
        {
          "internalType": "bool",
          "name": "_ok",
          "type": "bool"
        }
      ],
      "name": "setDistributor",
      "outputs": [],
      "stateMutability": "nonpayable",
      "type": "function"
    },
    {
      "inputs": [
        {
          "internalType": "address",
          "name": "_addr",
          "type": "address"
        },
        {
          "internalType": "bool",
          "name": "_ok",
          "type": "bool"
        }
      ],
      "name": "setManufacturer",
      "outputs": [],
      "stateMutability": "nonpayable",
      "type": "function"
    },
    {
      "inputs": [
        {
          "internalType": "address",
          "name": "_addr",
          "type": "address"
        },
        {
          "internalType": "bool",
          "name": "_ok",
          "type": "bool"
        }
      ],
      "name": "setRetailer",
      "outputs": [],
      "stateMutability": "nonpayable",
      "type": "function"
    },
    {
      "inputs": [],
      "name": "test",
      "outputs": [
        {
          "internalType": "uint256",
          "name": "",
          "type": "uint256"
        }
      ],
      "stateMutability": "view",
      "type": "function"
    },
    {
      "inputs": [
        {
          "internalType": "uint256",
          "name": "id",
          "type": "uint256"
        },
        {
          "internalType": "address",
          "name": "to",
          "type": "address"
        }
      ],
      "name": "transferOwnership",
      "outputs": [],
      "stateMutability": "nonpayable",
      "type": "function"
    },
    {
      "inputs": [
        {
          "internalType": "uint256",
          "name": "id",
          "type": "uint256"
        },
        {
          "internalType": "enum SupplyChain.Status",
          "name": "newStatus",
          "type": "uint8"
        }
      ],
      "name": "updateStatus",
      "outputs": [],
      "stateMutability": "nonpayable",
      "type": "function"
    }
  ],
  "bytecode": "0x608060405260016000556001600755348015601957600080fd5b5033600660006101000a81548173ffffffffffffffffffffffffffffffffffffffff021916908373ffffffffffffffffffffffffffffffffffffffff1602179055506120578061006a6000396000f3fe608060405234801561001057600080fd5b50600436106101005760003560e01c8063958e6cc611610097578063cc64278411610066578063cc642784146102e6578063d59ba0df14610316578063f851a44014610332578063f8a8fd6d1461035057610100565b8063958e6cc61461023a5780639a268f35146102565780639ce31b9c14610286578063b9db15b4146102b657610100565b80635d42b2b9116100d35780635d42b2b9146101895780637acc0b20146101b957806389588018146101ee5780638fbd0dcf1461020a57610100565b806310769cd51461010557806329507f73146101355780632dea85e5146101515780633a1b3d311461016d575b600080fd5b61011f600480360381019061011a91906113d3565b61036e565b60405161012c919061141b565b60405180910390f35b61014f600480360381019061014a919061146c565b61038e565b005b61016b600480360381019061016691906114d8565b610521565b005b6101876004803603810190610182919061153d565b61060c565b005b6101a3600480360381019061019e91906113d3565b610776565b6040516101b0919061141b565b60405180910390f35b6101d360048036038101906101ce919061157d565b610796565b6040516101e5969594939291906116cf565b60405180910390f35b610208600480360381019061020391906114d8565b61090f565b005b610224600480360381019061021f91906117a3565b610aff565b6040516102319190611824565b60405180910390f35b610254600480360381019061024f91906114d8565b610db3565b005b610270600480360381019061026b91906113d3565b610e9e565b60405161027d919061141b565b60405180910390f35b6102a0600480360381019061029b919061146c565b610ebe565b6040516102ad919061141b565b60405180910390f35b6102d060048036038101906102cb919061157d565b610fe0565b6040516102dd9190611946565b60405180910390f35b61030060048036038101906102fb91906113d3565b6111d6565b60405161030d919061141b565b60405180910390f35b610330600480360381019061032b91906114d8565b6111f6565b005b61033a6112e1565b6040516103479190611968565b60405180910390f35b610358611307565b6040516103659190611824565b60405180910390f35b60026020528060005260406000206000915054906101000a900460ff1681565b600060016000848152602001908152602001600020905060008160000154036103ec576040517f08c379a00000000000000000000000000000000000000000000000000000000081526004016103e3906119cf565b60405180910390fd5b3373ffffffffffffffffffffffffffffffffffffffff168160010160009054906101000a900473ffffffffffffffffffffffffffffffffffffffff1673ffffffffffffffffffffffffffffffffffffffff161461047e576040517f08c379a000000000000000000000000000000000000000000000000000000000815260040161047590611a3b565b60405180910390fd5b818160010160006101000a81548173ffffffffffffffffffffffffffffffffffffffff021916908373ffffffffffffffffffffffffffffffffffffffff1602179055508173ffffffffffffffffffffffffffffffffffffffff163373ffffffffffffffffffffffffffffffffffffffff16847f16b85f49bf01212961345d3016c9a531894accf62eb7680f2045d79185cc0ec060405160405180910390a4505050565b600660009054906101000a900473ffffffffffffffffffffffffffffffffffffffff1673ffffffffffffffffffffffffffffffffffffffff163373ffffffffffffffffffffffffffffffffffffffff16146105b1576040517f08c379a00000000000000000000000000000000000000000000000000000000081526004016105a890611aa7565b60405180910390fd5b80600260008473ffffffffffffffffffffffffffffffffffffffff1673ffffffffffffffffffffffffffffffffffffffff16815260200190815260200160002060006101000a81548160ff0219169083151502179055505050565b60006001600084815260200190815260200160002090508060010160009054906101000a900473ffffffffffffffffffffffffffffffffffffffff1673ffffffffffffffffffffffffffffffffffffffff163373ffffffffffffffffffffffffffffffffffffffff1614806106ce5750600660009054906101000a900473ffffffffffffffffffffffffffffffffffffffff1673ffffffffffffffffffffffffffffffffffffffff163373ffffffffffffffffffffffffffffffffffffffff16145b61070d576040517f08c379a000000000000000000000000000000000000000000000000000000000815260040161070490611b13565b60405180910390fd5b818160040160006101000a81548160ff0219169083600581111561073457610733611658565b5b0217905550827f2da7b23ca63c1eb969eee5fae4acb98186abecf5358b0354a82a5183ebca6b2a836040516107699190611b33565b60405180910390a2505050565b60056020528060005260406000206000915054906101000a900460ff1681565b60016020528060005260406000206000915090508060000154908060010160009054906101000a900473ffffffffffffffffffffffffffffffffffffffff16908060020180546107e590611b7d565b80601f016020809104026020016040519081016040528092919081815260200182805461081190611b7d565b801561085e5780601f106108335761010080835404028352916020019161085e565b820191906000526020600020905b81548152906001019060200180831161084157829003601f168201915b50505050509080600301805461087390611b7d565b80601f016020809104026020016040519081016040528092919081815260200182805461089f90611b7d565b80156108ec5780601f106108c1576101008083540402835291602001916108ec565b820191906000526020600020905b8154815290600101906020018083116108cf57829003601f168201915b5050505050908060040160009054906101000a900460ff16908060050154905086565b600660009054906101000a900473ffffffffffffffffffffffffffffffffffffffff1673ffffffffffffffffffffffffffffffffffffffff163373ffffffffffffffffffffffffffffffffffffffff161461099f576040517f08c379a000000000000000000000000000000000000000000000000000000000815260040161099690611aa7565b60405180910390fd5b80600560008473ffffffffffffffffffffffffffffffffffffffff1673ffffffffffffffffffffffffffffffffffffffff16815260200190815260200160002060006101000a81548160ff02191690831515021790555080600260008473ffffffffffffffffffffffffffffffffffffffff1673ffffffffffffffffffffffffffffffffffffffff16815260200190815260200160002060006101000a81548160ff02191690831515021790555080600360008473ffffffffffffffffffffffffffffffffffffffff1673ffffffffffffffffffffffffffffffffffffffff16815260200190815260200160002060006101000a81548160ff02191690831515021790555080600460008473ffffffffffffffffffffffffffffffffffffffff1673ffffffffffffffffffffffffffffffffffffffff16815260200190815260200160002060006101000a81548160ff0219169083151502179055505050565b6000600260003373ffffffffffffffffffffffffffffffffffffffff1673ffffffffffffffffffffffffffffffffffffffff16815260200190815260200160002060009054906101000a900460ff16610b8d576040517f08c379a0000000000000000000000000000000000000000000000000000000008152600401610b8490611bfa565b60405180910390fd5b6000806000815480929190610ba190611c49565b9190505590506040518060c001604052808281526020013373ffffffffffffffffffffffffffffffffffffffff16815260200187878080601f016020809104026020016040519081016040528093929190818152602001838380828437600081840152601f19601f82011690508083019250505050505050815260200185858080601f016020809104026020016040519081016040528093929190818152602001838380828437600081840152601f19601f82011690508083019250505050505050815260200160016005811115610c7c57610c7b611658565b5b815260200142815250600160008381526020019081526020016000206000820151816000015560208201518160010160006101000a81548173ffffffffffffffffffffffffffffffffffffffff021916908373ffffffffffffffffffffffffffffffffffffffff1602179055506040820151816002019081610cfe9190611e6c565b506060820151816003019081610d149190611e6c565b5060808201518160040160006101000a81548160ff02191690836005811115610d4057610d3f611658565b5b021790555060a082015181600501559050503373ffffffffffffffffffffffffffffffffffffffff16817f5b6548625353cfbb6de6bbb313a0b1cf8efbb45f2874f24c9d352590e3e366ff88888888604051610d9f9493929190611f7a565b60405180910390a380915050949350505050565b600660009054906101000a900473ffffffffffffffffffffffffffffffffffffffff1673ffffffffffffffffffffffffffffffffffffffff163373ffffffffffffffffffffffffffffffffffffffff1614610e43576040517f08c379a0000000000000000000000000000000000000000000000000000000008152600401610e3a90611aa7565b60405180910390fd5b80600460008473ffffffffffffffffffffffffffffffffffffffff1673ffffffffffffffffffffffffffffffffffffffff16815260200190815260200160002060006101000a81548160ff0219169083151502179055505050565b60046020528060005260406000206000915054906101000a900460ff1681565b6000600560003373ffffffffffffffffffffffffffffffffffffffff1673ffffffffffffffffffffffffffffffffffffffff16815260200190815260200160002060009054906101000a900460ff16610f4c576040517f08c379a0000000000000000000000000000000000000000000000000000000008152600401610f4390612001565b60405180910390fd5b6000600160008581526020019081526020016000209050838160000154148015610fc557508273ffffffffffffffffffffffffffffffffffffffff168160010160009054906101000a900473ffffffffffffffffffffffffffffffffffffffff1673ffffffffffffffffffffffffffffffffffffffff16145b15610fd4576001915050610fda565b60009150505b92915050565b610fe861130d565b600160008381526020019081526020016000206040518060c0016040529081600082015481526020016001820160009054906101000a900473ffffffffffffffffffffffffffffffffffffffff1673ffffffffffffffffffffffffffffffffffffffff1673ffffffffffffffffffffffffffffffffffffffff16815260200160028201805461107690611b7d565b80601f01602080910402602001604051908101604052809291908181526020018280546110a290611b7d565b80156110ef5780601f106110c4576101008083540402835291602001916110ef565b820191906000526020600020905b8154815290600101906020018083116110d257829003601f168201915b5050505050815260200160038201805461110890611b7d565b80601f016020809104026020016040519081016040528092919081815260200182805461113490611b7d565b80156111815780601f1061115657610100808354040283529160200191611181565b820191906000526020600020905b81548152906001019060200180831161116457829003601f168201915b505050505081526020016004820160009054906101000a900460ff1660058111156111af576111ae611658565b5b60058111156111c1576111c0611658565b5b81526020016005820154815250509050919050565b60036020528060005260406000206000915054906101000a900460ff1681565b600660009054906101000a900473ffffffffffffffffffffffffffffffffffffffff1673ffffffffffffffffffffffffffffffffffffffff163373ffffffffffffffffffffffffffffffffffffffff1614611286576040517f08c379a000000000000000000000000000000000000000000000000000000000815260040161127d90611aa7565b60405180910390fd5b80600360008473ffffffffffffffffffffffffffffffffffffffff1673ffffffffffffffffffffffffffffffffffffffff16815260200190815260200160002060006101000a81548160ff0219169083151502179055505050565b600660009054906101000a900473ffffffffffffffffffffffffffffffffffffffff1681565b60075481565b6040518060c0016040528060008152602001600073ffffffffffffffffffffffffffffffffffffffff16815260200160608152602001606081526020016000600581111561135e5761135d611658565b5b8152602001600081525090565b600080fd5b600080fd5b600073ffffffffffffffffffffffffffffffffffffffff82169050919050565b60006113a082611375565b9050919050565b6113b081611395565b81146113bb57600080fd5b50565b6000813590506113cd816113a7565b92915050565b6000602082840312156113e9576113e861136b565b5b60006113f7848285016113be565b91505092915050565b60008115159050919050565b61141581611400565b82525050565b6000602082019050611430600083018461140c565b92915050565b6000819050919050565b61144981611436565b811461145457600080fd5b50565b60008135905061146681611440565b92915050565b600080604083850312156114835761148261136b565b5b600061149185828601611457565b92505060206114a2858286016113be565b9150509250929050565b6114b581611400565b81146114c057600080fd5b50565b6000813590506114d2816114ac565b92915050565b600080604083850312156114ef576114ee61136b565b5b60006114fd858286016113be565b925050602061150e858286016114c3565b9150509250929050565b6006811061152557600080fd5b50565b60008135905061153781611518565b92915050565b600080604083850312156115545761155361136b565b5b600061156285828601611457565b925050602061157385828601611528565b9150509250929050565b6000602082840312156115935761159261136b565b5b60006115a184828501611457565b91505092915050565b6115b381611436565b82525050565b6115c281611395565b82525050565b600081519050919050565b600082825260208201905092915050565b60005b838110156116025780820151818401526020810190506115e7565b60008484015250505050565b6000601f19601f8301169050919050565b600061162a826115c8565b61163481856115d3565b93506116448185602086016115e4565b61164d8161160e565b840191505092915050565b7f4e487b7100000000000000000000000000000000000000000000000000000000600052602160045260246000fd5b6006811061169857611697611658565b5b50565b60008190506116a982611687565b919050565b60006116b98261169b565b9050919050565b6116c9816116ae565b82525050565b600060c0820190506116e460008301896115aa565b6116f160208301886115b9565b8181036040830152611703818761161f565b90508181036060830152611717818661161f565b905061172660808301856116c0565b61173360a08301846115aa565b979650505050505050565b600080fd5b600080fd5b600080fd5b60008083601f8401126117635761176261173e565b5b8235905067ffffffffffffffff8111156117805761177f611743565b5b60208301915083600182028301111561179c5761179b611748565b5b9250929050565b600080600080604085870312156117bd576117bc61136b565b5b600085013567ffffffffffffffff8111156117db576117da611370565b5b6117e78782880161174d565b9450945050602085013567ffffffffffffffff81111561180a57611809611370565b5b6118168782880161174d565b925092505092959194509250565b600060208201905061183960008301846115aa565b92915050565b61184881611436565b82525050565b61185781611395565b82525050565b600082825260208201905092915050565b6000611879826115c8565b611883818561185d565b93506118938185602086016115e4565b61189c8161160e565b840191505092915050565b6118b0816116ae565b82525050565b600060c0830160008301516118ce600086018261183f565b5060208301516118e1602086018261184e565b50604083015184820360408601526118f9828261186e565b91505060608301518482036060860152611913828261186e565b915050608083015161192860808601826118a7565b5060a083015161193b60a086018261183f565b508091505092915050565b6000602082019050818103600083015261196081846118b6565b905092915050565b600060208201905061197d60008301846115b9565b92915050565b7f50726f6475637420646f6573206e6f7420657869737400000000000000000000600082015250565b60006119b96016836115d3565b91506119c482611983565b602082019050919050565b600060208201905081810360008301526119e8816119ac565b9050919050565b7f4f6e6c79206f776e65722063616e207472616e73666572000000000000000000600082015250565b6000611a256017836115d3565b9150611a30826119ef565b602082019050919050565b60006020820190508181036000830152611a5481611a18565b9050919050565b7f4f6e6c792061646d696e00000000000000000000000000000000000000000000600082015250565b6000611a91600a836115d3565b9150611a9c82611a5b565b602082019050919050565b60006020820190508181036000830152611ac081611a84565b9050919050565b7f4e6f7420617574686f72697a6564000000000000000000000000000000000000600082015250565b6000611afd600e836115d3565b9150611b0882611ac7565b602082019050919050565b60006020820190508181036000830152611b2c81611af0565b9050919050565b6000602082019050611b4860008301846116c0565b92915050565b7f4e487b7100000000000000000000000000000000000000000000000000000000600052602260045260246000fd5b60006002820490506001821680611b9557607f821691505b602082108103611ba857611ba7611b4e565b5b50919050565b7f4f6e6c792070726f647563657200000000000000000000000000000000000000600082015250565b6000611be4600d836115d3565b9150611bef82611bae565b602082019050919050565b60006020820190508181036000830152611c1381611bd7565b9050919050565b7f4e487b7100000000000000000000000000000000000000000000000000000000600052601160045260246000fd5b6000611c5482611436565b91507fffffffffffffffffffffffffffffffffffffffffffffffffffffffffffffffff8203611c8657611c85611c1a565b5b600182019050919050565b7f4e487b7100000000000000000000000000000000000000000000000000000000600052604160045260246000fd5b60008190508160005260206000209050919050565b60006020601f8301049050919050565b600082821b905092915050565b600060088302611d227fffffffffffffffffffffffffffffffffffffffffffffffffffffffffffffffff82611ce5565b611d2c8683611ce5565b95508019841693508086168417925050509392505050565b6000819050919050565b6000611d69611d64611d5f84611436565b611d44565b611436565b9050919050565b6000819050919050565b611d8383611d4e565b611d97611d8f82611d70565b848454611cf2565b825550505050565b600090565b611dac611d9f565b611db7818484611d7a565b505050565b5b81811015611ddb57611dd0600082611da4565b600181019050611dbd565b5050565b601f821115611e2057611df181611cc0565b611dfa84611cd5565b81016020851015611e09578190505b611e1d611e1585611cd5565b830182611dbc565b50505b505050565b600082821c905092915050565b6000611e4360001984600802611e25565b1980831691505092915050565b6000611e5c8383611e32565b9150826002028217905092915050565b611e75826115c8565b67ffffffffffffffff811115611e8e57611e8d611c91565b5b611e988254611b7d565b611ea3828285611ddf565b600060209050601f831160018114611ed65760008415611ec4578287015190505b611ece8582611e50565b865550611f36565b601f198416611ee486611cc0565b60005b82811015611f0c57848901518255600182019150602085019450602081019050611ee7565b86831015611f295784890151611f25601f891682611e32565b8355505b6001600288020188555050505b505050505050565b82818337600083830152505050565b6000611f5983856115d3565b9350611f66838584611f3e565b611f6f8361160e565b840190509392505050565b60006040820190508181036000830152611f95818688611f4d565b90508181036020830152611faa818486611f4d565b905095945050505050565b7f4f6e6c7920636572746966696572000000000000000000000000000000000000600082015250565b6000611feb600e836115d3565b9150611ff682611fb5565b602082019050919050565b6000602082019050818103600083015261201a81611fde565b905091905056fea26469706673582212206148683dd3721a7e2bcbf180fd2c82f3301ad9a6433f3e9e2518e19ac30333c164736f6c634300081c0033",
  "linkReferences": {},
  "deployedLinkReferences": {}
}